:1000000083160514851486018312FF3086002D3077
:1000100093009400402066200C08AA3A031D37285C
:100020006920402066200C08003A031D3728F43070
:100030008C00DD2069203B207D20402066200C08BC
:10004000FA3A031D37286920402066200C089000EA
:100050006920402066200C0891006920402066201D
:100060000C089200EE20692024280000000086136E
:1000700038280000080032309500950B3D28080014
:1000800005184028051C42285C205C205C205C2070
:100090005C205C205C205C2005184C2885185A28C0
:1000A0000D10051C512805185328851C3628051CE1
:1000B000572808000D14512805185C2805088F00E2
:1000C0008F0C8F0C8C0C051C632808006B203B20C8
:1000D0000800702008008316051083120510080020
:1000E0008316051483120800831685108312851069
:1000F00008008316851483120800662039207420B6
:100100003920692005188228BD20051C852805187E
:100110008728BD20051C8A2805188C28BD20051CB1
:100120008F2805189128BD20051C942805189628AD
:10013000BD20051C992805189B28BD20051C9E285C
:100140000518A028BD20051CA3280518A528BD203A
:10015000051CA8280518AA28C420051CAD280518C8
:10016000AF287920051CB2280518B4288518362830
:10017000051CB828851CBA2808008C0C0318C22856
:10018000742008007920C1280D18C82874200800A0
:100190007920C72800308E000C188E0A8C188E0A21
:1001A0000C198E0A8C198E0A0C1A8E0A8C1A8E0A59
:1001B0000C1B8E0A8C1B8E0A0800CA200E1CE2281B
:1001C0000D1008000D140800CA200E0801398E0019
:1001D0000D088E06031D08003520080010180029A0
:1001E00006179018022906141019042986141108FC
:1001F000FF39031D06211208FF39031D09210800DC
:100200000613F1280610F4288610F728101E0C2972
:100210002229901E4E2938293B20930D031C1129B9
:10022000142913100612162913140616930D031C15
:100230001A291D29131006111F2913140615910BD5
:100240000C2908003B20930C031C27292A2993130F
:1002500006112C2993170615930C031C30293329FA
:1002600093130612352993170616910F22290800B9
:100270003B20940D031C3D2940291410861242296D
:1002800014148616940D031C46294929141086114E
:100290004B2914148615920F382908003B20940C22
:1002A000031C53295629941386115829941786152F
:1002B000940C031C5C295F299413861261299417FE
:0802C0008616920B4E2908007E
:00000001FF
