:100000006A28FF3FFF3FFF3FA53003138312F00034
:10001000F00B082800000000080003138312A3015E
:10002000240884000130F1002508F200003072023B
:1000300003191E28F10D7110F20B162824088400F4
:100040000008F1050130031DF10027087102031DAE
:100050002C28FF30F2002D28F201FF307202031D20
:100060006928F2012608720203183928FF30F100CE
:100070003A28F101FF307102031D462804200420B4
:100080002608F200F2037208A60031282408840032
:100090000130F1002508F2000030720203195428E3
:1000A000F10D7110F20B4C28240884000008F105B2
:1000B0000130031DF10027087102031D6228FF3083
:1000C000F2006328F201FF307202031D6928FF303D
:1000D000A30008000C300313831685008601073047
:1000E00083129F00063086000630F000FF30F100DA
:1000F000FF30F200F00B7D288428F10B8028832844
:10010000F20B80287D287A281A30F000FF30F100A9
:10011000F00B8B288E28F10B8B2888284230F000BA
:10012000F00B902802308600A0010530A4000230B8
:10013000A5000130A600A7010D2000300313831293
:100140002002031DA828FF3003138312F100AB28FF
:1001500003138312F1010313831223087105F000C6
:10016000FF307002031DDA28FF3003138312A00052
:10017000143086001A30F000FF30F100FF30F2003A
:10018000F00BC328CA28F10BC628C928F20BC628D1
:10019000C328C0287F30F000FF30F100F00BD128D9
:1001A000D428F10BD128CE285830F000F00BD628F7
:1001B00000000000053003138312A4000230A500E4
:1001C0000130A600A7010D20FF3003138312200287
:1001D000031DEF28FF3003138312F100F2280313ED
:1001E0008312F1010313831223087105F000FF301D
:1001F0007002031D7E29013003138312A100FF301A
:10020000A200133003138312210203180C29FF30BC
:1002100003138312F1000F2903138312F101FF303E
:10022000031383127102031D4229823003138312C8
:10023000F200FF30F300F20B1E292129F30B1E29D7
:100240001B298730F200F20B232900000530A4009F
:100250000230A5000130A600A7010D20FF300313D6
:1002600083122302031D3C29031383122108F20089
:10027000F20A7208A100412903138312A20113306C
:10028000A10001291330031383122102031D4D29FC
:10029000FF3003138312F100502903138312F1017D
:1002A0000313831271082205F000FF307002031D52
:1002B0007E2903138312A001023086002430F0004F
:1002C000FF30F100FF30F200F00B67296E29F10BCF
:1002D0006A296D29F20B6A2967296429B130F00077
:1002E000FF30F100F00B75297829F10B752972297F
:1002F000E430F000F00B7A29000000000530031311
:100300008312A4000330A5000130A600A7010D2030
:10031000FF30031383122002031D9329FF300313C0
:100320008312F100962903138312F1010313831240
:1003300023087105F000FF307002031DC429031368
:100340008312A001023086002430F000FF30F1005B
:10035000FF30F200F00BAD29B429F10BB029B3291D
:10036000F20BB029AD29AA29B130F000FF30F1001D
:10037000F00BBB29BE29F10BBB29B829E430F000F2
:10038000F00BC02900000000C729C729C8299528FB
:10039000C829FF3FFF3FFF3FFF3FFF3FFF3FFF3FBA
:02400E00783FF9
:00000001FF
