:100000006A28FF3FFF3FFF3FA53003138312C00064
:10001000C00B0828000000000800031383128F01A2
:10002000100884000130C1001108C20000304202F3
:1000300003191E28C10D4110C20B16281008840098
:100040000008C1050130031DC10013084102031D52
:100050002C28FF30C2002D28C201FF304202031DB0
:100060006928C2011208420203183928FF30C10072
:100070003A28C101FF304102031D46280420042014
:100080001208C200C20342089200312810088400FE
:100090000130C1001108C200003042020319542887
:1000A000C10D4110C20B4C28100884000008C10586
:1000B0000130031DC10013084102031D6228FF30F7
:1000C000C2006328C201FF304202031D6928FF30CD
:1000D0008F0008000C30031383168500860106305C
:1000E000831286000630C000FF30C100FF30C2001E
:1000F000C00B7B288228C10B7E288128C20B7E285A
:100100007B2878281A30C000FF30C100C00B892836
:100110008C28C10B892886284230C000C00B8E284D
:10012000023086008C0105309000023091000130D1
:10013000920093010D200030031383120C02031D63
:10014000A628FF3003138312C100A92803138312CA
:10015000C101031383120F084105C000FF304002A4
:10016000031DD828FF30031383128C00143086003F
:100170001A30C000FF30C100FF30C200C00BC128E0
:10018000C828C10BC428C728C20BC428C128BE2850
:100190007F30C000FF30C100C00BCF28D228C10B78
:1001A000CF28CC285830C000C00BD4280000000055
:1001B0000530031383129000023091000130920049
:1001C00093010D20FF30031383120C02031DED2851
:1001D000FF3003138312C100F02803138312C101FF
:1001E000031383120F084105C000FF304002031DB6
:1001F0007C290130031383128D00FF308E001330F1
:10020000031383120D0203180A29FF30031383120C
:10021000C1000D2903138312C101FF3003138312A0
:100220004102031D4029823003138312C200FF30B4
:10023000C300C20B1C291F29C30B1C291929873095
:10024000C200C20B2129000005309000023091004D
:100250000130920093010D20FF30031383120F022F
:10026000031D3A29031383120D08C200C20A420873
:100270008D003F29031383128E0113308D00FF2858
:100280001330031383120D02031D4B29FF30031398
:100290008312C1004E2903138312C1010313831279
:1002A00041080E05C000FF304002031D7C290313E6
:1002B00083128C01023086002430C000FF30C10060
:1002C000FF30C200C00B65296C29C10B68296B295E
:1002D000C20B682965296229B130C000FF30C10016
:1002E000C00B73297629C10B73297029E430C00033
:1002F000C00B782900000000053003138312900022
:10030000033091000130920093010D20FF30031360
:1003100083120C02031D9129FF3003138312C100C5
:10032000942903138312C101031383120F0841059B
:10033000C000FF304002031DC229031383128C0149
:10034000023086002430C000FF30C100FF30C20000
:10035000C00BAB29B229C10BAE29B129C20BAE2902
:10036000AB29A829B130C000FF30C100C00BB929AA
:10037000BC29C10BB929B629E430C000C00BBE2985
:1003800000000000C529C529C6299328C629FF3FBA
:02400E00F93F78
:00000001FF
