:02000000562880
:10000600023083120313FC004930FD00FD0B092862
:0A001600FC0B0928000000000800A0
:1000200083120313A9012608F1000130F0007108C2
:1000300003191E28F00D7010FF3E182825088400B3
:1000400070080005F200F1017208003A03192A282D
:100050000130F10071082806031D53282708003CD1
:100060000318362803200320A7032E282608F100B2
:100070000130F000710803194128F00D7010FF3EA7
:100080003B282508840070080005F200F101720881
:10009000003A03194D280130F10071082806031DAC
:0C00A0005328FF30A9002908F0000800D8
:1000AC000C308316031385008601073083129F00E2
:1000BC00063086000B30FB002630FC005D30FD0066
:1000CC00FD0B6628FC0B6628FB0B66280000000065
:1000DC0002308600A2010530A5000230A6000130D6
:1000EC00A700A80110202208003AFF30031D0030A1
:1000FC00F1007108F00503199528FF30A2001430A7
:10010C0086003330FB00BB30FC00DF30FD00FD0B04
:10011C008D28FC0B8D28FB0B8D2800000000053072
:10012C00A5000230A6000130A700A801102022086B
:10013C00FF3AFF30031D0030F1007108F005031980
:10014C00E8280130A000FF30A1000930200203187C
:10015C00CD280230FB000430FC00BA30FD00FD0B52
:10016C00B528FC0BB528FB0BB52800000530A50005
:10017C000230A6000130A700A80110207008031956
:10018C00C928A00ACC28A1010930A000AB2820085E
:10019C00093AFF30031D0030F0002108F005031967
:1001AC00E828A201023086004830FB000630FC0033
:1001BC009F30FD00FD0BE028FC0BE028FB0BE0283A
:1001CC00000000000530A5000330A6000130A70098
:1001DC00A80110202208FF3AFF30031D0030F10067
:1001EC007108F00503193C290230FB000430FC00B7
:1001FC00BA30FD00FD0B0029FC0B0029FB0B00297C
:10020C0000000530A5000330A6000130A700013026
:10021C00A8001020700803193C290230FB000430A0
:10022C00FC00BA30FD00FD0B1929FC0B1929FB0B46
:10023C00192900000530A5000330A6000130A700E5
:10024C00A8011020700803193C29A2010230860075
:10025C004830FB000630FC009F30FD00FD0B3429BC
:10026C00FC0B3429FB0B34290000000071283D29BC
:02400E00383D3B
:00000001FF
