:1000000011C02FEF1895189532BF02B70E3111F0BD
:10001000B499FBCF089532BF02B70E3111F0B499F5
:10002000FBCF0895332731BB37BB32BB38BBF894C5
:100030003BBF35BF03E005BF00E40BBF789431BD83
:1000400037BBB499FECF0EE001BD0FE007BBB49BF8
:10005000FECF37BBB499FECF56B35F705295B49BB9
:10006000FECFB499FECF06B30F70502BB49BFECFDA
:1000700037BBA895573531F15235E9F1593421F0A4
:10008000DECF55EA7BD0DBCF53E5FCCF51E476D011
:100090005DD0052E5BD0152E8B9A04E60A95F1F7FC
:1000A0002FEF71E885D07A2F83D070E081D08A3528
:1000B00001F570E07DD08D35E1F4702D79D0712D92
:1000C00077D00895A7E5E2DF5FE658D0012490E8F5
:1000D0003DD00526752F6CD09A95D1F7702D68D03C
:1000E00070E066D08C3529F470E062D08D3509F46B
:1000F0001BC022D0C6CFA2E5C9DF70E059D070E0A6
:1001000057D08D35B1F770E053D0801591F770E07E
:100110004FD0811571F75FE631D091E870E048D09B
:10012000582F2CD09A95D1F770E042D0873409F738
:1001300055E424D001D083CF31BB31BD05E003BFEE
:1001400032BF02B70436E9F733BF089537BBB4991D
:10015000FECF0FE007BBB49BFECF37BBB499FECFF9
:1001600056B35F705295B49BFECFB499FECF06B3E1
:100170000F70502BB49BFECF37BB089537BB0FEFEA
:100180005027B499FECF0FE007BBB49BFECF052FDD
:1001900002950F7007BBB499FECFB49BFECF052F1D
:1001A0000F7007BBB499FECFB49BFECF37BB089549
:1001B00005E003BF32BF02B70E3111F02223D9F39D
:1001C000222768E008E1759508F0006201BB0F7E08
:1001D0000CD00BD001BB0000000000000000869591
:0C01E0008099806800006A9569F7089516
:00000001FF
