:10000000FF3086008500A5298B1824280B119E0B34
:100010000900961A13289E0A96161F0881001D08CB
:100020008A001C0809008F3062001B088A001A0829
:1000300008009C009612873062008101A0308B007E
:100040001D088A001C0808008B100C088200820022
:1000500030308C008230860090308B00273027288B
:10006000061B48283A308C0040309400083092003B
:100070002730090006089100910D910D8E0C8E1B02
:100080009409920B48284A308C0014084039940097
:1000900027300900060840399402031954285130CA
:1000A0000800FE305D20282858308C0027300900D9
:1000B000061C582886105C3008008F008E008B01CB
:1000C00008309200013094008D308C008230860020
:1000D00006084139413C031D682875309500903071
:1000E0008B008A01273086132728140806388E00D3
:1000F0007F3095000330920027308B172728061C8D
:100100007F28F630002186109C30002128200E0820
:10011000FE3C031D08000F085E280E0C8E0C0E0816
:10012000023886008E1B9409920B98281508080047
:1001300027300900861DB52896170A3093007830BD
:1001400000220A309300161678300022B5309A004B
:100150009B0198309E0069309F009D01B0301920AE
:100160008B138518B5288B17820001309B00C73090
:100170009A0007309E005F309F0005129D01851197
:10018000273019202728B5309A009B0103309E00A4
:100190002F309F00E128961FD02893030319B5281C
:1001A0000510EC3000210512EC3000210516EC3072
:1001B00000210514CB309A009B0102309E00D13003
:1001C0009F00FF3085009D01E63019208B13851CB0
:1001D000EB288B1782001320161A0800851CEE28C6
:0201E000080015
:1002000081008F3062008B120B110B1D0529080035
:100210000A148A100D0882000E08E13C0319942983
:1002200016100E08E03C0319322999010E08F03C23
:1002300003192529161318080E02031D2229FF3061
:10024000900008000E089800012B980116172C301A
:100250008D00FF30900008000C308D000E08012347
:10026000901708009801161339308D00FF30900068
:1002700008000E08F03C031946290C308D001908BF
:100280000E02031908000E089900002B16174B30B8
:100290008D00990108000C308D000E080023901786
:1002A0000800161B5629613000224F34CF3000223F
:1002B000E134161B5E29613000224E34CE3000221C
:1002C000E134161B6629613000224C34CC30002208
:1002D000E134161B6E29613000224D34CD300022EE
:1002E000E134161B7629663000223734B7300022FD
:1002F000E6349614161B961063341615161B161149
:1003000066349615161B96116734161BFF348A0146
:10031000ED305D20171D9029171117085D20E2347C
:10032000171517085D206234980199019D308D00E2
:1003300007309300FF3090000800930B0800161858
:100340009A2816140C308D0008007D306600E630C7
:1003500065008F30620002309B00BA309A004C304A
:100360009E00B5309F009D012730192030308C0051
:10037000B0302D2086100F309E00BE309F0001301F
:100380009B00C7309A009D0127301920272896012D
:1003900098019901FF305D202820F6305D20ED3076
:1003A0005D2004305D20961732309300CB200A3058
:1003B0009300FD3000220A309300FE300022961395
:1003C000ED305D20970103015D200C308D008A0126
:1003D0002820082116080E390E3C03199A28100807
:0C03E000FF3C0319E72910080022E72960
:100400008B019000100D900D9009FF308500083091
:100410009200100D900D100818388500EC30002166
:100420000512EC3000210516EC300021920B092A50
:080430000514161AC328DA288E
:10060000703E0423900008000A148A148207FF3405
:100610005834FF3454345234503451345B34FF3442
:10062000593457345534533442340034FF34FF3492
:1006300064346034FF34792910340134FF34FF34DA
:10064000FF3431342134203411340234FF34FF3488
:10065000333432342234123404340334FF34FF345C
:10066000403434342334143413340534FF34FF3429
:10067000363435342534243415340634FF34FF340D
:10068000FF3437342634163407340834FF34FF344B
:1006900038342734173418340A340934FF34FF341B
:1006A00039343A342834293419340B34FF34FF34C4
:1006B000FF342A34FF341A340C34FF34FF348529D4
:1006C000613444341B34FF342B34FF34FF34FF34A3
:1006D0003034FF34FF34FF34FF344134FF34FF340F
:1006E0001D34FF342D343D34FF34FF34FF340F34D8
:1006F0003C341E342E342F343E3445345A340D34B9
:100700005E341F344A345D343F348529FF34FF346E
:100710006534FF3456347929FF34FF34FF34FF3415
:10072000FF34FF34FF34FF34FF34FF347D29FF34BE
:10073000FF34FF34FF34FF34FF34FF348129FF34AA
:10074000FF34FF34FF34FF34FF34FF347129FF34AA
:10075000FF34FF34FF34FF34FF34FF34FF34FF3401
:10076000FF34FF34FF34FF34FF34FF34FF34FF34F1
:10077000FF34FF34FF34FF34FF34FF34FF34FF34E1
:10078000FF345C34FF34FF34FF34FF34FF34FF3474
:10079000FF34FF34FF34FF34FF34FF34FF34FF34C1
:1007A000FF344334FF34FF34FF34FF34FF34FF346D
:1007B000FF34FF34FF34FF34FF34FF34FF34FF34A1
:1007C0005929FF344F345129FF34FF34FF345F344B
:1007D00046344D34FF344E344C34FF34FF34FF3450
:0A07E000FF346929FF3471296129F3
:00000001FF
