:1000000000009220A2201F289B008316061783124F
:1000100006181628061F0828161C8612161886169B
:10002000960C06181628061B112808288316061396
:1000300083121D0896009B0E1B0E8B1009002720B3
:10004000AF20AF205C20AF207520AF201F28851186
:10005000AF20013090003D20AF20423090003D2085
:10006000AF203D20AF203D2019089800AF203D2053
:1000700019089700AF208515080008309300051176
:1000800010188514101C8510900C990C00000000AD
:1000900000000000000000009913051505189917CD
:1000A000000000000000000000000000930B3F284B
:1000B000FF30900085140800FF309100181E911049
:1000C000981E1112181F9111981F1111971C6F2063
:1000D000971E9112171F11131108860008009C0B20
:1000E0000800171304309C00080016179617981D77
:1000F0009612171D1612971D9611171E9610971F10
:100100001611171F16109819961617191616971903
:100110009615171A9614971B1615171B1614160802
:100120009D0008008316051485100511851106131E
:100130008612061486108611061106120113811705
:100140008312080085150515851402309C008B105C
:100150008B170B1608009500950BAC2808000A3089
:1001600094000A30AB20940BB2280800FF3FFF3FF9
:10400000FF3FFF3FFF3FFF3FFF3FFF3FFF3FF93FC6
:00000001FF
