:10000000642A82004F34003457345B345F345D34EB
:10001000413400344D345134553459347B34FF3439
:100020000034003437343F3400340029DF34FD34E9
:100030000034003400349D34BD34BF34DD34FB342F
:100040000034003499349B34BB34DB34F734F93456
:10005000003400347F349734B934D734D934F5348C
:100060000034003493349534B534B734D534F33494
:100070000034003400349134B334D334F134EF34E9
:10008000003400348F34B134D134CF34EB34ED3418
:10009000003400348D348B34AF34AD34CD34E93496
:1000A000003400340034AB340034CB34E734003453
:1000B00000343B343D347734C9340034A93400343F
:1000C000003400349F3400340034003400347D3474
:1000D00000340034C5340034A53485340034003491
:1000E0000034E1348734C334A334A1348334753409
:1000F0004B34E5344334C1346B34453481344934B2
:10010000003400340034003453340D2900340034FA
:10011000003400340034003400340034003400343F
:100120000034003435340034003403290034003402
:10013000003400340034003400340034003400341F
:1001400033340034003400340034003400340034DC
:1001500031340034003400340034003400340034CE
:1001600006290034003400340034003400340034F4
:1001700000340034003400340034003400340034DF
:1001800000340034003400340034003400340034CF
:100190000034003400348B34003400340034003434
:1001A00000340034003400340034003400340034AF
:1001B0000034003400347934003400340034003426
:1001C000003400340034003400340034003400348F
:1001D000003400341429003461341B290034003405
:1001E0006334302973346534003463346734003445
:1001F000003400340034222900340D2929293729FC
:100200002018393433342018393431343330A021B4
:100210009130B5233230A02100343130A021CD30CF
:10022000B5233030A02100343D30A0216330B52308
:100230003C30A02100343D30A0216130B5233C305A
:10024000A02100343D30A0216530B5233C30A021F1
:1002500000343D30A0216730B5233C30A02100346C
:100260003130A021F130B5233030A02100343930B5
:10027000A0219930B5233830A021003497004321C4
:10028000970B3F290800FF309800980B452908007C
:1002900096001502031908003330160203190F11D6
:1002A0003230160203190F153130160203198F1060
:1002B0003030160203198F143B301602031D6629D5
:1002C0000F1016089500FF308D0008003A30160216
:1002D000031D84290F143B301502031D7D298D0158
:1002E0008C093B300C1CFE39A021ED30D7211015B4
:1002F0000C1C10111008D7210800201808008E01CE
:100300008D013830A02108001608A10095008D0845
:1003100003199529201895298E08031D9529FF306A
:100320008E003930A0212108A0291608FE39443C4E
:10033000031D9B019B0A28301B020319F922160892
:10034000960005303E21083097009401961B8515D4
:10035000961F8511083044210512083044210516E6
:100360000A304421960D970BA6290F309700FF30D5
:100370009700980083168515831297030319980335
:1003800018080319CC298519BD29851DC52985158E
:1003900083168511831208000512083044210516C2
:1003A000FF3097009800910303190800BD299400BD
:1003B0001408990092018614000006108316861016
:1003C00000000610831208309700831686148312EB
:1003D0008618E82919180614191C0610990C031818
:1003E000920A861CF129970BE8298618F52912181C
:1003F0000610121C0614861CFB298618FD290614FB
:10040000861C002A8316061483128618052A861C69
:10041000072A083044218610831686108312143070
:1004200044211722FA301902031DD8290800990126
:10043000861483168614831286181C2A861C1E2A8C
:10044000083097008618222A990C06189917061C5E
:100450009913861C292A970B222A86182D2A861C76
:100460002F2A8618312A861C332A86108316861076
:1004700083121430442108009000ED30D721100879
:10048000D72125303E21ED30D7210030D72125302E
:100490003E2108000130D823013C03195B2A0F30AC
:1004A000A0210830910001303C2202303C2204306F
:1004B0003C22910B532A70303E21061183160611FF
:1004C0008312FF303E216E2A061183160611831215
:1004D00030309100FF303E21910B6A2A0516000052
:1004E0008515831607308500FF30860083128D0145
:1004F0008E018C0195019B0107308F00A001003017
:10050000D823023C0319A009061C842AF630D721FF
:1005100007303C22ED30D72102309000D721F43053
:10052000D7218F0803194A2A1722E1301902031D27
:10053000A12A172217221722172217221722172261
:10054000912A9A01E0301902031DC02A80309A00D6
:100550001722F0301902031DB72A17221230190290
:100560000319912A59301902031DCD2A912A1230FC
:1005700019020319912A59301902031DC62A912A1A
:10058000F0301902031DC62A1722CD2A190A1A07AC
:100590000120003E031D4821912A190A1A079A00DA
:1005A000B0301A020319912A85301A020319912AD0
:1005B000EA301A020319912AED301A020319912A1E
:1005C000F1301A020319912AFB301A020319912AF9
:1005D000FD301A020319912AFE301A020319912ADA
:1005E000FF301A020319912A1A080120FE39482106
:1005F000912A9E013B30A0215C237E239530B523B8
:10060000CF30B523BF30B523D930B523BB30B523A8
:1006100085239823FB30B5237F30B5237E238F239A
:100620009823F530B5237F30B5237E237F30B52363
:10063000DD30B523D130B5239330B523ED30B5236C
:10064000F530B5237730B523BC239F001F0803196D
:10065000F92AC823A323A0010030D823023C0319A0
:10066000A0099E0A5C23AA238523B930B523BF3095
:10067000B523BD30B523D730B5237F30B523AA23AA
:100680008F23BD30B523AF30B523CF30B523DD3058
:10069000B5237F30B523AA237730B523BC239F0031
:1006A0001F080319322BC823A3239B017E308D081A
:1006B00003193A30960008007730B523B523BD30D2
:1006C000B523DB30B523AF30B523DB30B52399300C
:1006D000B523D730B5237F30B523D730B523D530F8
:1006E000B523CD30B523DB30B5237F30B523CF30F4
:1006F000B523B930B5237F30B5230800B130B52319
:10070000DB30B523D530B52308007730B523B523CA
:10071000FD30B523E730B5237F30B52308007730AF
:10072000B523FB30B523E730B5237F30B523080070
:10073000D330B523B130B5237F30B523FD30B52399
:10074000EB30B5230800CF30B523B130B523773077
:10075000B5230800D930B523DB30B523BD30B52330
:10076000DB30B523D730B52308009C00A0211C083E
:10077000FE39A0211C080800172217221722163064
:100780001902031901341E3019020319023400340E
:100790001E0889001F088800831608155530890037
:1007A000AA3089008814081ED32B88018312080000
:0C07B00089008316081483120808080052
:00000001FF
