:100000000C9434000C943E000C943E000C943E0082
:100010000C943E000C943E000C943E000C943E0068
:100020000C943E000C943E000C943E000C943E0058
:100030000C943E000C943E000C943E000C943E0048
:100040000C943E000C943E000C943E000C943E0038
:100050000C943E000C943E000C943E000C943E0028
:100060000C943E000C943E0011241FBECFEFD8E04C
:10007000DEBFCDBF0E9488000C94B5000C94000038
:100080009B01AC0160E070E082E19AE70E9493007E
:100090003E5F4F4F5F4F8AE05695479537952795BE
:1000A0008A95D1F7215031093093C5002093C400BF
:1000B000E0ECF0E080818260808386E08093C20083
:1000C00088E18093C10008959091C00095FFFCCF16
:1000D0008093C6000895219A2998549A5C985B9A57
:1000E000209A289A299A08955C984B99FECF5C9A99
:1000F00086B199B1907C8F73892B0E9464004B9BD1
:10010000FECF28988AE18A95F1F700C0289A0895D1
:1001100060E071EE80E090E00E9440000E946B0081
:100120000E947400FDCFA1E21A2EAA1BBB1BFD0189
:100130000DC0AA1FBB1FEE1FFF1FA217B307E407C6
:10014000F50720F0A21BB30BE40BF50B661F771F1E
:10015000881F991F1A9469F76095709580959095FE
:0E0160009B01AC01BD01CF010895F894FFCFC3
:00000001FF
