:03000000020100FA
:05002300C0D002016BDA
:10010000C297C293758132313B3156D292D297C297
:100110009274C0F5301201C374C0F5311201C3D21C
:10012000923004FDC204743E120163E53012016393
:10013000E5311201630000000080E6758780758953
:1001400020758DFA758BFAD28E759852C203C20152
:10015000C20475A890229001D7E4936005A331638F
:1001600080F7223099FDC299F59922C0E0209805C8
:10017000D0E0D0D032B293E599C298200322200279
:1001800019200107B41BE9D20180E5B43205D2047D
:100190000201B9B43123D20280D6F530D20380D027
:1001A000F531C0E0C292E5301201C3D0E01201C3C4
:1001B000D292742E31630201B9C201C202C203C2DB
:1001C0009380AD7F08C295334004C2948002D294DC
:1001D000D295C295DFF1220D0A45544F2052656D2C
:1001E0006F746520566F6C756D6520436F6E747209
:1001F0006F6C2056312E33202831352D30342D3977
:10020000352920627920452E2054682E2076616E93
:100210002064656E204F6F737465726B616D702E14
:100220000D0A0D0A0D0A434F4D4D414E4453202DEA
:1002300020536574206C6576656C733A20223142D8
:10024000682C203331682C203C72696768746C65B7
:1002500076656C3E2C203C6C6566746C6576656CCE
:100260003E222E0D0A202020202020202020202089
:1002700020202020726573756C743A20222E220D86
:100280000A0D0A2020202020202020202D20476534
:1002900074206C6576656C733A20223142682C209C
:1002A000333268222E0D0A202020202020202020FA
:1002B000202020202020726573756C743A20223E25
:1002C000202C3C72696768746C6576656C3E2C20E6
:1002D0003C6C6566746C6576656C3E222E0D0A0D6D
:1002E0000A0D0A4C4556454C532020203A20303107
:1002F00068202D3E202D39352E352064420D0A20F0
:1003000020202020202020203A20303268202D3E3E
:10031000202D39352E302064420D0A202020202047
:10032000202020203A20433068202D3E20202030FD
:100330002E302064420D0A20202020202020202062
:100340003A20464668202D3E202B33312E3520643E
:10035000420D0A2020202020202020203A2030306A
:0E03600068202D3E204D7574650D0A0D0A00B3
:00000001FF
