:100000008B01813062001A288B10A800030EA90012
:10001000241186182415A40CA30CAA16A20B1528CB
:100020000B30A200BB152308A500290E8300A80EE3
:10003000280E0900FF309F0085018601FF30650012
:10004000660020308400483C8001840AFF3E031D86
:100050002428863084001830AB000B30A20000301A
:10006000D8210F3065006430D8210130620008309B
:10007000AD000030D821AD0B39280010801432308B
:10008000D821E830A5210330A521E630A521E630AE
:10009000A521E630A521E930A521C721C721AD0062
:1000A000C721553C031D5A2833302D02031D5A2801
:1000B0003C156428922103196328013C031D65281F
:1000C0003C1492210319BC14BB17E830A52103305E
:1000D000A521E630A521F330A521C830A521F430B3
:1000E000A5218221E930A52103180028FA3C031D2F
:1000F0000028C721031800286039203C031D002870
:100100003B1A8D28C72103188B28BB1A8D28C721BD
:1001100003188C288D283B16BB160330A100BB1B8F
:10012000A10AAE01000806060439BC1D0319A12866
:1001300080199C28BC15A1283B13EF306500FF30C7
:1001400066008B170B16BB1DB928BB112E083D3E50
:1001500084002508800086308400AE0AA10B18298F
:100160000330A100BB1BA10AAE013B141830AB0049
:1001700018293B1CD4283B10BB14B10101303D1A97
:10018000FF30BE08031DB1003E083D1A003C2F079A
:100190000318FF30AF00B300B307031CB307031C01
:1001A0001829FF30B3001829BB1CEF28BB103B15E2
:1001B000B2010130BD1AFF30BF08031DB2003F0875
:1001C000BD1A003C30070318FF30B000B500B5077A
:1001D000031CB507031C1829FF30B50018293B1D67
:1001E00018293B113D0DAD00AD0D2D091C39AD0099
:1001F0001C3C031D82213B1F18290008E3392D04F4
:100200008000BB1F18293C1D0B293D08C039031D68
:100210008012031980164008BC1C17293039031DB1
:1002200080120319801640080F39C019F038C10731
:10023000811FA3282E3081026400AC0B3129AB0B47
:1002400031291830AB000B122108BB1BFF3E033CC9
:10025000031D302922080B3C031D30290618722883
:100260000B163308B407031C4029AF0803194029B3
:10027000AF033108B702370C013937060339B9002B
:100280003508B607031C4F29B00803194F29B003DE
:100290003208B807380C013938060339BA00BC19DE
:1002A0005A29861A5A29801E5A290230C20000177C
:1002B0008017C101C10803196E290130C11F003C1C
:1002C000C107C207420C01394206AD0000083F39A0
:1002D0002D184038AD1880383B1B80000310390DB5
:1002E000390739073A04C0383B1B6500AA0BA3281D
:1002F0000B12AA08031D80290B30A200AA168D2814
:100300000B16A3283B1B080005090F390319061D0E
:1003100008003B170330B900BA000230B700B8003C
:10032000C2000800F330A521C830A521F330A52173
:1003300064303C18C830A521F330A5215030A521E8
:10034000F230A521C721043C08008B01AD00A600B6
:10035000A701A70900106430E1210830A000013096
:10036000AD0C0318A706A00BB0290B30A000001499
:10037000801064000618BA29A70CA60C031C801074
:1003800003188014061CC229A00BB9298B018B17F6
:100390000B162830A00064006430E121BB1DD42975
:1003A000BB11250803100800A00BCB29031408007B
:1003B000A0006400F930FF3E031DDB29A00BD92902
:1003C0000800FF3E031DE1290800AD007F306600F4
:1003D0000930A0006400061BEA297F300314AD0D2C
:1003E0000318FF3066006400061FF329A00BEA29FA
:0203F000080003
:00000001FF
